{
  "abi": [
    {
      "inputs": [
        {
          "internalType": "string",
          "name": "_question",
          "type": "string"
        },
        {
          "internalType": "bytes32",
          "name": "_hashedAnswer",
          "type": "bytes32"
        }
      ],
      "stateMutability": "nonpayable",
      "type": "constructor"
    },
    {
      "anonymous": false,
      "inputs": [],
      "name": "AnswerGuessed",
      "type": "event"
    },
    {
      "anonymous": false,
      "inputs": [
        {
          "indexed": false,
          "internalType": "uint256",
          "name": "amount",
          "type": "uint256"
        }
      ],
      "name": "QuizFunded",
      "type": "event"
    },
    {
      "stateMutability": "payable",
      "type": "fallback"
    },
    {
      "inputs": [
        {
          "internalType": "string",
          "name": "answer",
          "type": "string"
        }
      ],
      "name": "guess",
      "outputs": [],
      "stateMutability": "nonpayable",
      "type": "function"
    },
    {
      "inputs": [],
      "name": "hashedAnswer",
      "outputs": [
        {
          "internalType": "bytes32",
          "name": "",
          "type": "bytes32"
        }
      ],
      "stateMutability": "view",
      "type": "function"
    },
    {
      "inputs": [],
      "name": "question",
      "outputs": [
        {
          "internalType": "string",
          "name": "",
          "type": "string"
        }
      ],
      "stateMutability": "view",
      "type": "function"
    },
    {
      "inputs": [],
      "name": "salt",
      "outputs": [
        {
          "internalType": "bytes32",
          "name": "",
          "type": "bytes32"
        }
      ],
      "stateMutability": "view",
      "type": "function"
    },
    {
      "stateMutability": "payable",
      "type": "receive"
    }
  ],
  "bytecode": {
    "object": "0x6080604052663639343230363960c81b60005534801561001e57600080fd5b5060405161063738038061063783398101604081905261003d91610069565b600261004983826101c1565b5060015550610280565b634e487b7160e01b600052604160045260246000fd5b6000806040838503121561007c57600080fd5b82516001600160401b038082111561009357600080fd5b818501915085601f8301126100a757600080fd5b8151818111156100b9576100b9610053565b604051601f8201601f19908116603f011681019083821181831017156100e1576100e1610053565b816040528281526020935088848487010111156100fd57600080fd5b600091505b8282101561011f5784820184015181830185015290830190610102565b6000928101840192909252509401519395939450505050565b600181811c9082168061014c57607f821691505b60208210810361016c57634e487b7160e01b600052602260045260246000fd5b50919050565b601f8211156101bc57600081815260208120601f850160051c810160208610156101995750805b601f850160051c820191505b818110156101b8578281556001016101a5565b5050505b505050565b81516001600160401b038111156101da576101da610053565b6101ee816101e88454610138565b84610172565b602080601f831160018114610223576000841561020b5750858301515b600019600386901b1c1916600185901b1785556101b8565b600085815260208120601f198616915b8281101561025257888601518255948401946001909101908401610233565b50858210156102705787850151600019600388901b60f8161c191681555b5050505050600190811b01905550565b6103a88061028f6000396000f3fe6080604052600436106100435760003560e01c80633fad9ae0146100ae5780634eee59b3146100d9578063a597201d146100fb578063bfa0b1331461011f5761007e565b3661007e576040514781527f6163bf8b8285097ba88fb3225378b6ecba49a8c21a5ee8fe42de53f0e06ab727906020015b60405180910390a1005b6040514781527f6163bf8b8285097ba88fb3225378b6ecba49a8c21a5ee8fe42de53f0e06ab72790602001610074565b3480156100ba57600080fd5b506100c3610135565b6040516100d0919061025e565b60405180910390f35b3480156100e557600080fd5b506100f96100f43660046102ac565b6101c3565b005b34801561010757600080fd5b5061011160015481565b6040519081526020016100d0565b34801561012b57600080fd5b5061011160005481565b600280546101429061031e565b80601f016020809104026020016040519081016040528092919081815260200182805461016e9061031e565b80156101bb5780601f10610190576101008083540402835291602001916101bb565b820191906000526020600020905b81548152906001019060200180831161019e57829003601f168201915b505050505081565b60015460005483836040516020016101dd93929190610358565b60405160208183030381529060405280519060200120146101fd57600080fd5b471561025a576040517f2d98f000c881b01994fb29ae677a074705de44ff8360f0dc3e173c9cfa1eb13690600090a160405133904780156108fc02916000818181858888f19350505050158015610258573d6000803e3d6000fd5b505b5050565b600060208083528351808285015260005b8181101561028b5785810183015185820160400152820161026f565b506000604082860101526040601f19601f8301168501019250505092915050565b600080602083850312156102bf57600080fd5b823567ffffffffffffffff808211156102d757600080fd5b818501915085601f8301126102eb57600080fd5b8135818111156102fa57600080fd5b86602082850101111561030c57600080fd5b60209290920196919550909350505050565b600181811c9082168061033257607f821691505b60208210810361035257634e487b7160e01b600052602260045260246000fd5b50919050565b83815281836020830137600091016020019081529291505056fea2646970667358221220936ad3d1ab23e35bcd079a803c0860659a53e49db3bfd5d180068826fc47858464736f6c63430008130033",
    "linkReferences": {}
  },
  "methodIdentifiers": {
    "guess(string)": "4eee59b3",
    "hashedAnswer()": "a597201d",
    "question()": "3fad9ae0",
    "salt()": "bfa0b133"
  },
  "id": 19
}